:020000040800F2
:1000000068060020010100081B2B0008652300087A
:10001000192B000849090008993100080000000068
:100020000000000000000000000000004B2D000850
:10003000310B000800000000492D00084D2D00087C
:100040001B0100081B0100081B0100081B01000820
:100050001B0100081B0100081B0100081B01000810
:100060001B0100081B0100081B0100081B01000800
:100070001B0100081B0100081B0100081B010008F0
:100080001B0100081B0100081B0100081B010008E0
:100090001B0100081B0100081B0100081B010008D0
:1000A0001B010008B12D00081B0100081B010008FE
:1000B000BD2D00081B0100081B0100081B010008E2
:1000C0001B0100081B0100081B0100081B010008A0
:1000D0001B0100088D3100081B0100081B010008EE
:1000E000330B00081B0100081B010008DFF80CD0CF
:1000F00000F01CFB004800471D3B0008680600207C
:100100000648804706480047FEE7FEE7FEE7FEE7B1
:10011000FEE7FEE7FEE7FEE7FEE7FEE7AF2D00089D
:10012000ED000008202A04DB203A21FA02F0002129
:10013000704721FA02F3D040C2F1200291400843F7
:1001400019467047D2B201E000F8012B491EFBD2DC
:1001500070470022F6E710B513460A4604461946D2
:10016000FFF7F0FF204610BD10B5002200E0521C42
:10017000835C8C5CA34201D1002BF8D1D8B2E1B2F0
:10018000401A10BD70B50F4D00B92868002412E068
:100190000A4602E09E4203D0521C1378002BF9D18C
:1001A000DAB2224305D02BB124B1002100F8011BA3
:1001B00004E00446401C0678002EE9D12860204661
:1001C00070BD00001400002070B5064603F02CF846
:1001D000046805460A220021304600F0CCF82C6065
:1001E00070BD2DE9FE4F81EA030404F0004421F0C4
:1001F000004100944FF0000B23F0004350EA01044B
:100200005ED052EA03045BD0C3F30A54C1F30A552B
:100210002C44A4F2F3340194A0FB0254C1F3130163
:1002200041F48011C3F3130343F4801301FB024430
:1002300000FB034E840A970A44EA815447EA835735
:10024000A4FB076802958D0A05FB07854FEA932CEE
:1002500004FB0C542705029D4FEA065847EA16375F
:10026000B5EB08056EEB070C870E920E47EA811777
:1002700042EA8312A7FB0201B6EB0B0164EB000418
:100280002B0D43EA0C335E1844EB1C50DA46514602
:10029000E7FB0201C5F313044FEA0B3343EA14539F
:1002A0004FEA0432019C43EA0603A4F10C040294D1
:1002B000009CCDE900B400F0A5F803B0BDE8F08FD4
:1002C00000200146F9E70EB5C10F80EAE07008444E
:1002D000CA07002140F233438DE80E000A460B4660
:1002E00000F090F803B000BD30B50B460146002089
:1002F0002022012409E021FA02F59D4205D303FAE8
:1003000002F5491B04FA02F52844151EA2F1010268
:10031000F1DC30BD2DE9F05F0546002092469B469A
:1003200088460646814640241BE02846414647460B
:100330002246FFF7F7FE53465A46C01A914110D3A2
:1003400011461846224600F003FA2D1A67EB010801
:100350004F4622460120002100F0FAF917EB000970
:100360004E41201EA4F10104DFDC484631462A46F6
:100370004346BDE8F09F2DE9F04791460F46804681
:100380000446002614F8015B2DB100F003FA006862
:10039000405DC007F6D12B2D02D02D2D18D0641E44
:1003A0004A463946204600F0F9F927B13968A1429A
:1003B00001D1C7F8008071054FF002040BD540420F
:1003C000002803DD02F030FF0460A007BDE8F087DD
:1003D00046F48066E4E70028F8DA02F025FF0460BE
:1003E0006FF00040F2E710B5141E73F1000408DA54
:1003F000401C41F1000192185B411A4301D120F0E9
:10040000010010BD2DE9F04D92469B4611B1B1FAA5
:1004100081F202E0B0FA80F22032904600F098F9C2
:1004200004460F4640EA0A0041EA0B0153465A4689
:10043000084313D0114653EA010019D0C8F1400215
:100440005046FFF76FFE05460E4650465946424657
:1004500000F07EF9084305D0012004E0204639462B
:10046000BDE8F08D0020054346EAE0762C43374393
:100470000A986305E40AA0EB08000022FD0A44EA9A
:1004800047540A3002D500200146E9E7010510195A
:100490006941DDE9084500196941BDE8F04DA2E771
:1004A0002DE9FE4F804681EA0300C00F0C46009004
:1004B00021F0004123F00045B8EB0200A94105D22C
:1004C0004046214690461C460B46024623F000401B
:1004D000104347D0270DC7F30A00C3F30A51029017
:1004E000401A019040286BDAC3F3130040F4801BDC
:1004F0000098924620B10023D2EB030A63EB0B0B6A
:1005000001985946C0F14002504600F021F90646D4
:100510000D4650465946019A00F029F910EB0800A3
:100520006141002487EA115284EAE7731A4340D0FC
:10053000009A62B3019A012A4FEA075215DC001BA8
:1005400061EB02014FF0004202EA0752CDE900429E
:10055000001C41F5801132462B46FFF753FF03B0D4
:10056000BDE8F08F40462146F9E7001B61EB020130
:10057000001C41F5801300185B412018A2F50017FC
:1005800047EB030140EAD570B6196D4111E06D08E3
:100590004FEA360645EAC0754FEA0752001B61EB89
:1005A0000201001C41F5801149084FEA3000001992
:1005B000514132462B4603B0BDE8F04FFFF713BF61
:1005C0000098012240000023D0EB020263EBE073AD
:1005D000009821464FEAE074B8EB000061EB04019B
:1005E000E9E783F000435BE781F0004158E72DE93C
:1005F000F04D81EA030404F0004B21F0004514465D
:100600004FF0000A23F0004150EA050220D054EADE
:1006100001021DD0C5F30A570246C5F31303C1F307
:100620001300C1F30A5640F4801543F48013A7EB7E
:100630000608101BD64608F2FD3873EB050002D3FE
:1006400008F1010801E092185B41B8F1000F03DAEC
:1006500000200146BDE8F08D00204FF480110646D1
:1006600084460EE0171B73EB050705D3121B63EBE3
:10067000050306434CEA010C49084FEA3000921882
:100680005B4150EA0107EDD152EA030012D082EA41
:10069000040083EA0501084305D0101BAB4106D2D4
:1006A0000122002306E000224FF0004302E06FF039
:1006B000010253101AEB06004CEB085110EB0A0034
:1006C00041EB0B01BDE8F04DFFF78DBEC1F30A52BF
:1006D000C1F3130140F2FF3341F480119A4202DA70
:1006E00000200146704740F233439A42A2F233425F
:1006F00002DC5242FFF716BD00F02AB830B5041EE6
:1007000071F1000404DB4FF00044404264EB01014E
:10071000141E73F1000405DB1C464FF000435242E7
:1007200063EB0403994208BF904230BD064C074D6D
:1007300006E0E06840F0010394E8070098471034B1
:10074000AC42F6D3FFF7D6FC803E0008A03E00087E
:10075000202A04DB203A00FA02F100207047914081
:10076000C2F1200320FA03F3194390407047202A76
:1007700006DBCB17203A41FA02F043EAE07306E0C9
:1007800041FA02F3D040C2F12002914008431946D9
:1007900070470000004870477C3E00082DE9F05F7C
:1007A00082460078002715468B460AF10104B946B7
:1007B000302801D09DB113E014F8010B01277828EF
:1007C00003D0582801D045B10AE00DB1102D07D152
:1007D0000027102514F8010B02E0082500E00A2587
:1007E0000026B0460EE005FB080005FB06F10127D8
:1007F00001EB10461FFA80F8B6F5803F00D3B946EA
:1008000014F8010B294600F018F80028EBDABBF1C8
:10081000000F05D00FB1641E00E05446CBF8004035
:10082000B9F1000F06D002F0FFFC02210160C81EE2
:10083000BDE8F09F48EA0640FAE73A2800D230388F
:1008400020F02002412A01D3A2F13700884201D3CF
:100850004FF0FF30704700000248416902A000F0ED
:100860000DB90000E0010020636F756E74203D201B
:10087000256400000148006901F002BAE00100208F
:100880000149002008767047E0010020074810B5B4
:100890004169491C4161017E002906D1006901F0CE
:1008A0001BFABDE81040FFF7D7BF10BDE0010020E4
:1008B00010B50A4C0122A188206800F0DAFA084934
:1008C000012002F023FB0020606109202076BDE8B2
:1008D00010400449642002F019BB0000E001002030
:1008E000050900081509000830B5054C039D206076
:1008F000A180A260A3810020C4E90450207630BD0D
:10090000E0010020024800228188006800F0B1BAAE
:10091000E00100200548017E002905D00021416149
:10092000017603A000F0AAB870470000E0010020A3
:100930004173747261736F6E696320536861727082
:10094000202E2E2E00000000FEE7000070B534A11E
:100950003448FFF717FC064631A10020FFF712FCD0
:1009600004005CD030A13046FFF7FEFB304D60B391
:1009700030A13046FFF7F8FB68B330A13046FFF7EF
:10098000F3FB60B32FA13046FFF7EEFB60B32FA15E
:100990003046FFF7E9FB80B32EA13046FFF7E4FBBA
:1009A00098B32EA13046FFF7DFFB90B32CA1304661
:1009B000FFF7DAFB002832D12046FFF705FCC1B271
:1009C0002878BDE8704002F081B9AC60BDE87040A5
:1009D000012002F0BFB8BDE87040FFF769BF207882
:1009E000BDE8704002F088B92046FFF7EDFBBDE896
:1009F0007040B030C0B202F0D1BB2046FFF7E4FB3C
:100A0000BDE87040C0B202F093B8BDE8704002F09B
:100A100085B82046FFF7D8FBC0B26978D1E770BD32
:100A200020000000480100206C696E655F31000005
:100A300040020020636F6C6C656374006F6C6564CA
:100A400000000000706167650000000066696C6C62
:100A500000000000636C6561720000007800000017
:100A600079000000044900220A64C1E91120012232
:100A70004C3101F0FDBB00004801002010B502F030
:100A8000B3FBBDE8104001A002F0AEBB0A000000BD
:100A900070B5084C0025206C01E02554401C40280E
:100AA000FBDB044904A0FFF7E9FFFFF74FFF2564D4
:100AB00070BD000048010020726563696576653A83
:100AC0002025730070B5144C00252046616C90F809
:100AD0004C0049B15D280DD0216C40290EDA6054DC
:100AE000206C401C20640EE05B280CD10120C4E97E
:100AF000105008E06564FFF7CBFF04E007A0FFF7A4
:100B0000BDFF25646564A06CBDE870400249012208
:100B10004C3101F0ADBB0000480100206572726FDE
:100B2000723A636D645F746F6F5F6C6F6E67000025
:100B300070474FF4806000F09BB872B6FEE710B5C6
:100B400090F821100022022905D00421816380F849
:100B50002020012010BD01680B6823F00E030B60FC
:100B600001680B6823F001030B6090F84030C46B00
:100B7000012101FA03F3636080F8211080F820203E
:100B8000104610BD10B590F821100024022903D0A2
:100B90000421816301243DE001680A6822F00E020D
:100BA0000A6001680A6822F001020A601A4A0168B4
:100BB000914201D1012121E0174A1432914201D121
:100BC00010211BE0144A2832914201D1891515E009
:100BD000114A3C32914201D189140FE00E4A503241
:100BE000914202D14FF4803108E00B4A64329142C5
:100BF00002D14FF4801101E04FF08071064A083AAB
:100C00005160012180F82110002180F82010416BF3
:100C100001B18847204610BD0800024070B5044667
:100C200000F02CF90546601C02D00448007804440A
:100C300000F024F9401BA042FAD370BD0000002050
:100C40000A4A10B5117E00290FD0918981420CD13A
:100C5000906800F009F9012803D0BDE81040FFF7C3
:100C60000FBEBDE81040FFF705BE10BDE00100203B
:100C7000044910B50A68024202D00860FFF7E0FF9D
:100C800010BD0000140401402DE9F84FDFF8B891C1
:100C9000002409F1040A0AF1040B23460F270BF183
:100CA000040EC9E00125A5402A40AA427DD1674E25
:100CB000D1F804C0ACEB0608B44532D014DCBCF16A
:100CC000030F3AD009DCBCF1000F2AD0BCF1010FB0
:100CD0001CD0BCF1020F31D11DE0BCF1110F17D0B7
:100CE000BCF1120F2AD119E0B8F5881F19D006DC23
:100CF000B8F5803F15D0B8F5801F1FD111E0B8F5C9
:100D0000001F0ED0B8F5041F18D10AE0CB6815E01B
:100D1000CB681B1D12E0CB6808330FE0CB680C33A7
:100D20000CE08B682BB1012B4FF0080303D0456119
:100D300004E0042302E0056100E00023FF2A01D85B
:100D4000064601E000F104064FEA840501D9A5F149
:100D50002005D6F8008007FA05FC28EA0C0803FAFB
:100D600005F548EA0508C6F800804D68ED0062D533
:100D7000374DAE6946F00106AE61AD6924F0030659
:100D800005F001050095334D06EB050CDCF8085025
:100D9000A607360F07FA06F825EA0805DFF8B88037
:100DA000404503D14FF0000817E044E0DFF8AC8085
:100DB000404502D14FF001080FE0DFF8A480404524
:100DC00002D14FF0020808E0DFF89880404502D1D8
:100DD0004FF0030801E04FF0040808FA06F848EA6B
:100DE0000508CCF808804D68D9F80060ED034D4641
:100DF00001D5164300E096432E604D68DAF8006096
:100E0000AD03554601D5164300E096432E604D686C
:100E1000DBF80060ED025D4601D5164300E0964325
:100E20002E604D68DEF80060AD02754601D51643B0
:100E300000E096432E60641C0D682A46E5407FF46E
:100E400031AFBDE8F88F0000000401400000111030
:100E5000001002400000014000080140000C014069
:100E600000100140001401408068084000D00120BB
:100E700070470AB1016170470904FBE701488068C7
:100E8000704700000000002070B5040025D094F8E1
:100E90003D00002520B984F83C50204600F00EFBB0
:100EA000242084F83D002068016821F001010160E0
:100EB0002068016841F4004101602068016821F464
:100EC0000041016000F04EFC4D4A6168914201D83A
:100ED0004C4900E04C49884201D2012070BD4B4989
:100EE0002368B0FBF1F15E6826F03F060E435E60BA
:100EF0006368934206D94FF4967359434FF47A735B
:100F0000B1FBF3F12368491C1E6A26F03F0631430A
:100F100019626168914210D84900401EB0FBF1F29D
:100F2000521CC2F30B02042A01D2042022E0B0FBBF
:100F3000F1F0401CC0F30B001CE0A268F2B301EB1F
:100F4000C10303EB0116431EB3FBF6F35B1C43F432
:100F500080431B0549D092B301EBC10202EB0111A2
:100F6000401EB0FBF1F0401CC0F30B0040F4804089
:100F700040F400402168CA694CF6FF739A4310435D
:100F8000C861D4E9071001432068026822F0C0025A
:100F900011430160D4E9030101432068826848F2EB
:100FA000FF339A4311438160D4E905010843216866
:100FB000CA6822F0FF021043C86001E00EE016E0AC
:100FC0002068016841F0010101602564202084F857
:100FD0003D00256384F83E50002070BD01EB4106C2
:100FE000431EB3FBF6F35B1CB3E70120C2E701EB42
:100FF0004101401EB0FBF1F0401CC0F30B00B7E70D
:10100000A086010080841E0000093D0040420F00C0
:101010002DE9F84F1F4690468A460446DDF8289091
:10102000FFF72CFF054694F83D0020287FD11923B7
:10103000012240492046009501F0F2FA002876D1BD
:1010400094F83C00012872D0012084F83C0020680C
:101050000168C90703D1016841F0010101602068FE
:10106000016821F400610160212084F83D00102016
:1010700084F83E0000262664C4F824806785608DCD
:1010800020852D48E0622B464A465146204601F015
:1010900081F990B9206841698069009036E02A465C
:1010A0004946204601F06EFB50B1206C042804D163
:1010B0002068016841F4007101600120BDE8F88FEB
:1010C000606A216800780861606A401C6062618D16
:1010D000491E6185218D491E89B221852268536987
:1010E000DB435B070BD451B100781061606A401C90
:1010F0006062608D401E6085208D401E20852A46DE
:101100004946204601F066FA0028CED1208D0028FD
:10111000C5D154F83D0B016841F4007101602020F5
:1011200004F81E09E67766770020C7E7FFE702208C
:10113000C4E70000020010000000FFFF2DE9FF4F90
:1011400083B00025DDE910799A4693460446DDF820
:1011500048800095FFF792FE064694F83D0020284F
:101160007CD11923012285492046009601F058FAC6
:101170000028F5D194F83C0001286FD0012084F8B4
:101180003C0020680168C90703D1016841F00101F2
:1011900001602068016821F400610160222084F868
:1011A0003D00402084F83E0025646762A4F82A9040
:1011B000608D20857248E062CDE9008653465A462C
:1011C0002046049901F034F900287DD1208DDFF804
:1011D000B491202768B1012814D002282068016842
:1011E0001ED041F4806101602068416980690090EF
:1011F000B6E02068416981690091016841F400719D
:101200000160ADE02068016821F48061016072B680
:101210002068416981690091016841F400710AE028
:1012200041F40061016072B62068416981690091F2
:10123000016821F48061016062B691E0032868D8FA
:1012400001280CD0022843464FF0000249462046B0
:1012500000960FD001F0E4F9B0BB10E08BE032460D
:101260004146204601F05BFA70BB20680069616A64
:1012700008706CE001F0D4F930BB72B634E020683D
:10128000016821F48061016072B620680069616ABA
:101290000870606A401C6062208D401E2085608D51
:1012A000401E6085384846F2A8110068B0FBF1F096
:1012B000C0EBC00000EB80000090401E009008D002
:1012C00020684069C04300E029E040070CD5009841
:1012D000F3E744F8305F6773A573206940F020009E
:1012E000206162B625731AE02068016841F400713C
:1012F000016020680069616A0870606A401C606271
:10130000218D491E2185618D491E618562B6216846
:101310001BE032464146204601F001FA18B1012097
:1013200007B0BDE8F08F20680069616A0870606AE4
:10133000401C6062218D491E2185618D491E618599
:1013400021684A69D24352070AD409690170606A68
:10135000401C6062208D401E2085608D401E60858F
:10136000208D00287FF46AAF84F83D7084F83E50E9
:1013700084F83C50D4E70220D2E7000002001000BD
:101380000000FFFF040001000C0000202DE9FF4FCA
:1013900083B09A46DDE9119793460446DDF8408014
:1013A000FFF76CFD054694F83D0020287FD11923F6
:1013B000012240492046009501F032F9002876D1FB
:1013C00094F83C00012872D0012084F83C00206889
:1013D0000168C90703D1016841F00101016020687B
:1013E000016821F400610160212084F83D00402063
:1013F00084F83E0000262664C4F82480A4F82A90CD
:10140000608D20852C48E062CDE9007553465A4630
:101410002046049901F08AF870B930E02A4639462E
:10142000204601F0AFF958B1206C042804D120689F
:10143000016841F400710160012007B0BDE8F08F40
:10144000606A216800780861606A401C6062218DD2
:10145000491E89B22185628D521E628522685369B8
:10146000DB435B070BD469B100781061606A401CF4
:101470006062208D401E2085608D401E6085208D1D
:101480000028CBD12A463946204601F0A3F800288F
:10149000CAD154F83D0B016841F40071016020206D
:1014A00004F81E09E67766770020C6E7FFE702200A
:1014B000C3E70000020010000000FFFF10B586B077
:1014C0000021009101910291039100680F49884227
:1014D0001AD10F4CA06940F00800A061A0696946CC
:1014E00000F008000490C02000901220019003201A
:1014F00003900848FFF7C8FBE06940F40010E06182
:10150000E06900F40010049006B010BD00540040E3
:1015100000100240000C014002488168027811442A
:101520008160704700000020074810B5016841F055
:1015300010010160032000F06DF80F2000F006F8A4
:1015400000F024F8002010BD0020024070B50D4DC1
:1015500004464FF47A712878B1FBF0F00A49096823
:10156000B1FBF0F000F0E4FA48B9102C07D20022E9
:101570002146501E00F02EF800206C6070BD012046
:1015800070BD0000000000200C000020094808B5D4
:10159000816941F001018161816901F001010091DE
:1015A000C16941F08051C161C06900F08050009074
:1015B00008BD000000100240002809DB00F01F02F7
:1015C000012191404009800000F1E020C0F80011A5
:1015D00070470000F0B40E4B1B680C46C3F30223A7
:1015E000C3F10705042D00D90425191D072901D2CF
:1015F000002300E0DB1E012606FA05F1491E21400A
:1016000099409E40761E16403143F0BC01F0FCBD6F
:101610000CED00E0064900F0070208684FF6FF03F2
:10162000184040EA0220034A104308607047000057
:101630000CED00E00000FA052DE9F0470F4605002B
:1016400061D0434E306800F00700B84209D23068DC
:1016500020F0070038433060306800F00700B842DF
:1016600051D128683B4C810712D5400703D56068EB
:1016700040F4E06060602878000703D5606840F4BB
:10168000605060606068A96820F0F0000843606006
:101690002878C00728D06868012810D0216802285F
:1016A00010D0890700292EDA616821F00301014377
:1016B0006160FFF7E3FB804641F288390DE0216865
:1016C0008903EFE78901EDE7FFF7D8FBA0EB0801FD
:1016D000494502D90320BDE8F0876068696800F0D9
:1016E0000C00B0EB810FEFD1306800F00700B8427A
:1016F0000BD9306820F0070038433060306800F0C4
:101700000700B84201D00120E5E72878400705D559
:101710006068E96820F4E0600843606028780007AA
:1017200006D56068296920F4605040EAC100606015
:1017300000F038F86168084AC1F30311515CC840F1
:101740000649086006480068FFF700FF0020C2E76E
:101750000020024000100240B83B00080C000020AE
:10176000040000200448054900684968044AC1F3A0
:101770000221515CC84070470C000020001002405C
:10178000C83B00080448054900684968044AC1F399
:10179000C221515CC84070470C000020001002407C
:1017A000C83B000812A185B00FC98DE80F0014A036
:1017B000144A006804905168134801F00C03042B8C
:1017C00010D0082B0ED1C1F38343C9031DF80300C9
:1017D0000AD5516804AAC1F34041515C0A4A5043FA
:1017E000B0FBF1F005B0704708494843FAE7000044
:1017F00002030405060708090A0B0C0D0E0F101052
:10180000010200000010024000127A0000093D00B1
:101810002DE9F84F040070D02078C04DC00749D0A2
:101820006868C0F38100012807D06868C0F38100B0
:10183000022809D16868C00306D52868800339D515
:1018400060680028E7D035E06068B0F5803F0BD0D5
:1018500010B1B0F5A02F11D0286820F48030286096
:10186000286820F4802002E0286840F48030286056
:10187000606890B1FFF702FB06460AE0286840F472
:1018800080202860F0E700BFFFF7F8FA801B64288B
:1018900073D828688003F7D50CE0FFF7EFFA064607
:1018A00005E000BFFFF7EAFA801B6428F0D828683B
:1018B0008003F7D420789A4E80074FF001094FF04B
:1018C000000839D5686810F00C0F07D06868C0F3BD
:1018D0008100022809D16868C00306D428688007FF
:1018E00014D52069012808D110E02069B0B1C6F8EC
:1018F0000090FFF7C3FA074605E00AE1FFF7BEFADA
:10190000C01B0228C4D828688007F7D528686169F9
:1019100020F0F80040EAC10028600DE0C6F8008021
:10192000FFF7ACFA074604E0FFF7A8FAC01B02284D
:1019300023D828688007F7D4207800072CD5794869
:10194000A169D9B1C0F80090FFF798FA074604E002
:10195000FFF794FAC01B02280FD8686A8007F7D5F2
:1019600071484FF4FA510068B0FBF1F0009000BFED
:101970000098411E0091FAD20EE080E0C0F800808D
:10198000FFF77CFA074604E0FFF778FAC01B02284D
:1019900075D8686A8007F7D42078400760D5E86971
:1019A0000027C00008D4E86940F08050E861E86989
:1019B000012700F0805000905C480168C90513D4ED
:1019C0000168834641F480710160FFF757FA82464F
:1019D00006E000BFFFF752FAA0EB0A0064284ED8D9
:1019E000DBF80000C005F5D5E06801280AD008B191
:1019F000052813D0286A20F001002862286A20F008
:101A0000040002E0286A40F001002862E06841F228
:101A1000883B98B1FFF732FA82460BE0286A40F023
:101A200004002862EEE700BFFFF728FAA0EB0A01E6
:101A300059455AD8286A8007F6D50CE0FFF71EFAF8
:101A4000824605E0FFF71AFAA0EB0A0159454CD887
:101A5000286A8007F6D41FB1E86920F08050E86159
:101A6000E06988B36968C1F38101022944D0022882
:101A7000C6F8608004D0FFF701FA044638E034E08D
:101A8000FFF7FCF9074604E0FFF7F8F9C01B02284E
:101A90002BD828688001F7D4206AB0F5803F05D1A3
:101AA0006868A16820F4003008436860D4E9080140
:101AB0000843696821F4741108436860C6F86090AF
:101AC000FFF7DCF9044606E025E000BFFFF7D6F992
:101AD000001B022809D828688001F7D51BE000BF49
:101AE000FFF7CCF9001B022802D90320BDE8F88FCC
:101AF00028688001F4D40EE00128F7D06868226AD3
:101B000000F48031914204D1616A00F4701088427F
:101B100001D00120EAE70020E8E7000000100240C1
:101B200000004242800442420C000020007000404D
:101B300010B5401EB0F1807F01D3012010BD4FF0E1
:101B4000E02460610F21601701F05EFB0020A061BE
:101B500007202061002010BD7047704770B590F8D5
:101B60003C20012A26D0012480F83C40022280F843
:101B70003D2003685A689D6822F070060A68324367
:101B80005A600D4B02689A4208D0B2F1804F05D0DE
:101B90000A4B9A4202D00A4B9A4204D1496825F076
:101BA00080031943916080F83D40002180F83C108B
:101BB000084670BD022070BD002C014000040040AA
:101BC0000008004010B5040003D094F83D0010B1A7
:101BD00007E0012010BD002084F83C00204600F002
:101BE0001FF8022084F83D00211D206801F0ECF868
:101BF000012084F8460084F83E0084F83F0084F811
:101C0000400084F8410084F8420084F8430084F8DE
:101C1000440084F8450084F83D00002010BD000019
:101C200008B5154A0168154891420ED1816941F401
:101C3000006181618069002200F40060009011461B
:101C40001920FFF7C7FC192010E0B1F1804F11D126
:101C5000C16941F00101C161C069002200F00100C9
:101C6000009011461C20FFF7B5FC1C20BDE8084081
:101C7000FFF7A2BC08BD0000002C0140001002408C
:101C800090F83D10012901D001207047022180F811
:101C90003D100168CA6842F00102CA6000680B4941
:101CA000884208D0B0F1804F05D00949884202D05F
:101CB0000849884204D1816801F00701062903D050
:101CC000016841F00101016000207047002C0140D3
:101CD00000040040000800400168CA6822F00102C8
:101CE000CA6001680A6A41F211131A4207D10A6AEE
:101CF0009B101A4203D10A6822F001020A600121F6
:101D000080F83D100020704770B5044690F83C0004
:101D1000012817D0012584F83C50022084F83D00AA
:101D20002068826822F0770222F47F42826008688D
:101D3000502830D00DDC20284DD005DC98B3102879
:101D40003BD148E0022070BD302844D0402834D137
:101D500039E0602828D0702806D0B0F5805F2CD0FC
:101D6000B0F5005F29D10AE0CB68D1E901212068F4
:101D700001F060F82068816841F0770109E0CB68E4
:101D8000D1E90121206801F055F82068816841F40B
:101D90008041816011E0CA684968206801F05CF800
:101DA0005021206807E016E0CA684968206801F001
:101DB00064F86021206801F047F884F83D50002065
:101DC00084F83C0070BDCA684968206801F044F896
:101DD00040212068EFE7226801461046EBE7704794
:101DE00070B50446006801694FF00005C9438907D2
:101DF00015D4C168C943890711D4E91E01610120C6
:101E00002077206880698007204602D0FFF7E7FF2F
:101E100004E000F098F8204600F096F82577206856
:101E20000169C943490717D4C168C943490713D495
:101E30006FF004010161022020772068806910F4AE
:101E4000407F204602D0FFF7CAFF04E000F07BF895
:101E5000204600F079F8257720680169C943090711
:101E600016D4C168C943090712D46FF00801016193
:101E7000042020772068C0698007204602D0FFF741
:101E8000AEFF04E000F05FF8204600F05DF8257733
:101E900020680169C943C90617D4C168C943C90686
:101EA00013D46FF010010161082020772068C06909
:101EB00010F4407F204602D0FFF791FF04E000F0CD
:101EC00042F8204600F040F8257720680169C943B0
:101ED000C90708D1C168C943C90704D1891E016176
:101EE000204600F033F820680169C943090609D487
:101EF000C168C943090605D46FF08001016120461D
:101F0000FFF72AFE20680169C943490609D4C16860
:101F1000C943490605D46FF040010161204600F035
:101F20002BF820680169C94389060BD4C168C943ED
:101F3000890607D46FF0200101612046BDE870409A
:101F4000FFF70BBE70BD70477047000010B5044628
:101F50000748006AA04201D100F0BAFF05480069B5
:101F6000A04203D1BDE81040FEF790BC10BD0000B8
:101F700098010020E0010020704770477047000082
:101F8000F8B5026804461068D168536910F00F0F65
:101F90004FF0000554D003F0010601F49077374369
:101FA0005FD0C20705D0CA0503D5226C42F00102FA
:101FB0002264420705D5DA0703D0226C42F0020200
:101FC0002264820705D5DA0703D0226C42F00402AE
:101FD0002264020707D501F02002324303D0226CAD
:101FE00042F008022264226C002A35D0800604D513
:101FF000880602D5204600F0C3FF20684069216CA6
:10200000C0F3801001F008010143204625D000F004
:102010009FFF2068416949061BD5416921F04001B5
:102020004161A06BA8B158494163A06BFEF7AAFDBE
:10203000002811D0A06B416B01B0BDE8F04008470B
:1020400083060ED58B060CD52046BDE8F84000F07F
:1020500097BF2046FFF792FFF8BDFFF78FFF25647B
:10206000F8BD266B2023012E52D1C60650D5CE06D0
:102070004ED5106850680090506940062AD5A16B73
:10208000086840680004000CEAD0A68D8642E7D9B3
:10209000E0858869202818D0D06820F48070D0604E
:1020A0002068416921F0010141612068416921F006
:1020B0004001416184F83E3025632068C16821F009
:1020C0001001C160A06BFEF73AFDA08DE18D401AB2
:1020D00081B219E0A08DE18D401A81B2E08D002817
:1020E000BED00029BCD0D06820F49070D0602068A9
:1020F000426922F00102426184F83E302563206883
:10210000C26822F01002C2602046FFF736FFF8BD19
:1021100005062BD50D0629D594F83D002128F6D1CA
:10212000A068B0F5805F01D12069B0B1206A411C80
:102130002162216800784860E08C401E0004000C99
:10214000E084E4D12068C16821F08001C16020688A
:10215000C16841F04001C160F8BD206A0088C0F349
:1021600008005060206A801C2062E5E74006F3D535
:102170004806F1D5D168204621F04001D16084F8AD
:102180003D3000F0EEF8F8BD412F000870B50400B6
:1021900004D094F83D00002510B106E0012070BD88
:1021A00084F83C50204600F023F8242084F83D00B9
:1021B0002068C16821F40051C160204600F03CFF56
:1021C0002068016921F4904101612068416921F092
:1021D0002A0141612068C16841F40051C160256451
:1021E000202084F83D0084F83E00002070BD0000EF
:1021F00030B585B0002400940194029403940068E3
:10220000184988422CD11848816941F48041816184
:10221000816901F480410491816941F00401816187
:102220008069124D00F0040004904FF4007000909B
:10223000022001900320039069462846FEF724FD02
:102240002815CDE90004694628460294FEF71CFDD6
:10225000002211462520FFF7BDF92520FFF7ACF934
:1022600005B030BD003801400010024000080140B8
:1022700090F83E30202B0ED159B152B190F83C303D
:10228000012B08D0012380F83C300023036300F0C9
:102290002FBF012070470220704700000349896C5E
:1022A000814201D1FEF70EBC7047000048010020BA
:1022B0002DE9F843044690F83D001F4616460D46AA
:1022C00020284CD1C5B1BEB194F83C00012846D0BD
:1022D000012084F83C004FF00008C4F84080212021
:1022E00084F83D00FEF7CAFDA6848146E684A06816
:1022F000B0F5805F03D004E00120BDE8F8832069D9
:1023000028B12E465FF0000584F83C800EE00026E0
:10231000FAE78021204600F006FFA0B9AEB116F81A
:10232000010B21684860E08C401EE084E08C4B4645
:102330004FF0000200970028EBD14FF040012046FB
:1023400000F0F1FE30B10320D7E735F8020BC0F3FF
:102350000800E6E7202084F83D000020CDE70220B9
:10236000CBE77047FEE701684A69D24352050FD4B4
:102370006FF480624A61002140F8301F20224273CE
:102380008173026942F00402026101730120704707
:1023900000207047F8B50446C06A1E460D46174631
:1023A000082807D0012805D010F5803F02D0206B07
:1023B000122804D12068016841F48071016013463D
:1023C00000224FF001112046009600F029F940B19B
:1023D00020680068C00502D54FF400702064032017
:1023E000F8BD2069B0F5804F0ED00620216800EAC4
:1023F000D51040F0F000086133463A460B492046BC
:1024000000F042F978B902E005F0FE0000E0E8B221
:1024100021680861054933463A46891F204600F085
:1024200033F90028DCD00120F8BD000008000100CD
:102430002DE9F84F0446006889460B9D01689846CF
:10244000174641F4806101602068016841F48071A1
:10245000016000954FF0011B0022594620460A9B5F
:1024600000F0DEF84FF4007A40B120680068C00543
:1024700001D5C4F840A00320BDE8F88F216809F019
:10248000FE0008612B46284920460A9A00F0FCF815
:10249000F0BB20684169806900902A4620460A996D
:1024A00000F070F940B1206C04283AD1206801682E
:1024B00041F40071016034E0FEB2B8F1010F09D0BF
:1024C0002168380A08612A4620460A9900F05AF91C
:1024D0000028E8D1206806612A4620460A9900F0C3
:1024E00051F90028DFD12068016841F48071016052
:1024F00000950022594620460A9B00F091F80028DA
:10250000B3D1216809F0FF0040F00100086100E04C
:1025100007E02B46044920460A9A00F0B5F8002847
:10252000AAD00120A8E70000020001002DE9F8432D
:10253000044600680D46DDE908970168984616468E
:1025400041F4807101604B4600224FF0011120469A
:10255000009700F065F848B120680068C00502D512
:102560004FF4007020640320BDE8F883216805F073
:10257000FE0008613B464A461549204600F084F8B3
:1025800088B920684169806900903A4649462046EA
:1025900000F0F8F848B1206C042804D120680168E4
:1025A00041F4007101600120DEE7F5B2B8F1010FDE
:1025B00009D02168300A08613A464946204600F0B1
:1025C000E1F80028E7D1206805610020CCE7000091
:1025D0000200010070B516460D4604460DE0204687
:1025E000FFF7C1FE08B1012070BD681C05D0FEF7E1
:1025F00045FC801BA84207D835B120684069C0431C
:102600004007ECD4002070BD002044F8300F20219A
:102610006173A073216941F0200121612073E2E719
:102620002DE9F0471E4690460D460446C1F3074784
:10263000DDF8209008E0701C06D0FEF71FFCA0EB30
:102640000900B0420FD876B12068012F18D08069F8
:1026500025EA00000004000C14D000214145EAD016
:102660000020BDE8F087002044F8300F202161737E
:10267000A073216941F02001216120730120F0E75E
:102680004069E5E70121E9E72DE9F0479A469146DF
:102690000E46044600254FF02008C1F3074725E009
:1026A00020684069C043400514D42068016841F4A3
:1026B0000071016021686FF480604861256384F8CF
:1026C0003D8084F83E50206C40F00400206484F883
:1026D0003C501FE0B9F1FF3F08D0FEF7CFFBA0EB65
:1026E0000A0149450CD8B9F1000F09D02068012F23
:1026F00013D0806926EA00000004000C0BD0CFE75D
:1027000044F8305F84F80D80A573206940F0200004
:10271000206125730120BDE8F0874069EAE72DE9D3
:10272000F041002590460E460446202717E04069F8
:10273000C043C0060CD454F8301B6FF01000486141
:1027400044F810596777A577206A2062257717E04B
:10275000FEF794FBA0EB0800B04208D83EB1206819
:102760004169C9434906E2D40020BDE8F08144F83C
:10277000305F6773A573206940F0200020612573E6
:102780000120F2E770B516460D4604460DE02046DE
:10279000FFF7E9FD08B1012070BD681C05D0FEF708
:1027A0006DFB801BA84207D835B120684069C04343
:1027B0000006ECD4002070BD002044F8300F20212A
:1027C0006173A073216941F0200121612073E2E768
:1027D00010B5044800F064F80248BDE81040801DC0
:1027E00000F075B8000200202DE9F047124D134F9C
:1027F000DFF84C80DFF84C90002400BF35F914005E
:10280000FDF761FD3A464346FDF7EBFC05EBC406D8
:10281000C6E9040105EB4400B0F90600FDF753FDDD
:1028200000224B46FDF7DDFC641CE4B2C6E90A0158
:10283000032CE3D3BDE8F087000200209A99999910
:102840009999433F00408F3F70B500216B2000F005
:1028500063F80921192000F05FF803211A2000F025
:102860005BF800211C2000F057F800211B2000F02D
:1028700053F800200949024601EBC00321F810205B
:102880000024C3E9044401EB4004401CE28000241E
:10289000C3E90A4440B20328EEDB70BD0002002009
:1028A0001CB50446002000900190062269463B209A
:1028B00000F024F8BDF8000040BA2080BDF8020006
:1028C00040BA6080BDF8040040BAA0801CBD1CB5B1
:1028D000044600200090019006226946432000F043
:1028E0000DF8BDF8000040BA2080BDF8020040BAE3
:1028F0006080BDF8040040BAA0801CBD0EB54FF644
:10290000FF738DE80E0002460123D0210148FEF737
:1029100015FC0EBD2000002003B583B04FF6FF73F9
:10292000012204A98DE80E0013460246D021024878
:10293000FEF72CFD05B000BD2000002070B586B06C
:10294000002421480094019402940394816941F089
:1029500020018161816901F020010491816941F0C8
:1029600008018161816901F008010491816941F0E8
:10297000040181618069154E00F004004FF4006588
:102980000490002229463046FEF773FA6810009042
:102990000F48CDE9010469463046FEF775F901207C
:1029A0000095CDE901040220039069463046FEF708
:1029B0006BF9002211462820FEF70CFE2820FEF7B6
:1029C000FBFD06B070BD000000100240000C01408D
:1029D000000031100D4810B50B4901600C494160F1
:1029E00000214FF480428160C0E90312416181619E
:1029F000C1610162FEF748FA002803D0BDE810402B
:102A0000FEF79BB810BD00000054004020000020DD
:102A1000801A060010B586B000241748009401946F
:102A20000294039404941349059401604721C0E97A
:102A300001140921C0E9031444618461FFF7C2F85D
:102A400008B1FEF77AF84FF48050009069460A48C2
:102A5000FFF75AF908B1FEF770F8049404A9064884
:102A60000594FFF77BF8002801D0FEF766F806B062
:102A700010BD0000002C01407400002010B586B08D
:102A800000241648009401940294039404944FF097
:102A90008041059401604721C0E9011440F2E7310B
:102AA000C0E903148461FFF78DF808B1FEF745F81B
:102AB0004FF48050009069460848FFF725F908B1A7
:102AC000FEF73BF8049404A904480594FFF746F880
:102AD000002801D0FEF731F806B010BDBC00002080
:102AE0000C4810B50A4901604FF4165141600021AD
:102AF00081600C22C160C0E904128161C161FFF7ED
:102B000045FB002803D0BDE81040FEF716B810BD05
:102B10000038014004010020FEE7FEE710B5002167
:102B2000084600F0D3F8BDE810400020AFF3008065
:102B300070B5064600240025304600F041FB6D1CB0
:102B4000EDB2802DF8D300F0A5F8641CE4B2082C97
:102B5000F1D370BD70B5082813D20E49002401EBE3
:102B600080014D680146204600F0B0F805E000BF46
:102B700000F0C2F8641CE4B26D1C287838B1152C42
:102B8000F6D370BD202000F0B7F8641CE4B2152C19
:102B9000F8D370BD4002002010B54FF47A70FEF7F4
:102BA0003DF800F01FF80C4900200870487001EB58
:102BB0008003401C09A2C0B25A600828F7D3FFF76F
:102BC000ADFF07A1072000F06FF80021BDE810401D
:102BD000084600F07BB80000400200200000000022
:102BE0006F6B000010B5AE2000F0D8FA202000F086
:102BF000D5FA002000F0D2FAB02000F0CFFAC820B9
:102C000000F0CCFA002000F0C9FA102000F0C6FA5B
:102C1000402000F0C3FA812000F0C0FAFF2000F04D
:102C2000BDFAA12000F0BAFAA62000F0B7FAA82059
:102C300000F0B4FA3F2000F0B1FAA42000F0AEFAA0
:102C4000D32000F0ABFA002000F0A8FAD52000F065
:102C5000A5FAF02000F0A2FAD92000F09FFA222075
:102C600000F09CFADA2000F099FA122000F096FAAF
:102C7000DB2000F093FA202000F090FA8D2000F085
:102C80008DFA142000F08AFABDE81040AF2000F061
:102C900085BA000003484078401CC1B2002000F013
:102CA00015B800004002002070B50D4604460146EC
:102CB000002000F00BF8044800EB8400456020463B
:102CC000BDE87040FFF746BF4002002010B5044643
:102CD000084804704170B031C8B200F05FFA1020AB
:102CE00040EA141000F05AFA04F00F00BDE810405A
:102CF00000F054BA4002002070B5114C2028227810
:102D000009D20A281BD16078BDE87040401CC1B2CE
:102D10001046FFF7DBBF782A11D80A4900EB4000C4
:102D2000002501EB4006701910F8C00C00F048FABD
:102D30006D1CEDB2062DF6D32078801D207070BD7D
:102D400040020020D03B000870477047FEF7E4BB0C
:102D500030B58FB028216846FDF7FBF914210AA889
:102D6000FDF7F7F901210804CDE9001000240294D1
:102D700002250491CDE907504FF4E0100990684610
:102D8000FEF746FD08B172B6FEE70F20CDE90A0551
:102D90004FF48060CDE90C4002210AA80E94FEF7A2
:102DA0004BFC002801D072B6FEE70FB030BD704773
:102DB0000148FFF715B80000740000200148FFF734
:102DC0000FB80000BC000020F0B50268164B174C8D
:102DD000174D4FF08047984205D0B84203D0A0422B
:102DE00001D0A84203D122F070064A6832439842CB
:102DF00005D0B84203D0A04201D0A84203D122F4AA
:102E00004074CA6822434C6922F080022243026067
:102E10008A68C2620A688262984201D109690163C4
:102E200001214161F0BD0000002C01400004004080
:102E30000008004010B5846842EA032224F47F446D
:102E40000A432243826010BD826822F070020A4366
:102E500042F007018160704710B5036A046A24F0EC
:102E600001040462846924F0F00444EA021423F0AB
:102E70000A020A438461026210BD10B5036A23F09E
:102E8000100303628369046A23F4704343EA023245
:102E900024F0A00343EA01118261016210BD000029
:102EA000064A4FF0FF30002152F821301BB1491C77
:102EB0000829F9DB70470846704700009801002098
:102EC0000249086200204864704700009801002011
:102ED00070B500260C4D344655F8240048B1401E0C
:102EE00045F824004FF0010603D105EB8400406A49
:102EF0008047641C082CEFDB002E04D1286ABDE853
:102F00007040FEF7E9BE70BD9801002070B50D4617
:102F10000646FFF7C5FF0446401C0CD0074800EBEF
:102F2000840140F824604D6201214164006AFEF78B
:102F3000A7FE204670BD4FF0FF3070BD9801002005
:102F400010B5406A0021C185C184FFF717F810BD94
:102F50000168CA6822F49072CA6001684A6922F066
:102F600001024A61016B012904D10168CA6822F09B
:102F70001002CA60202180F83E10002101637047D2
:102F800008B590F83E10222901D0022008BD8268C1
:102F90004FF480539A4201D1016921B1816A9A426A
:102FA0001BD04AB10AE00268816A5268C2F3080283
:102FB0000A80816A891C08E0026972B1026852685D
:102FC00002F07F020A70816A491C8162C18D491E2C
:102FD0000904090CC18503D019E002685268F1E7C1
:102FE0000168CA6822F02002CA600168CA6822F437
:102FF0008072CA6001684A6922F001024A61202198
:1030000080F83E10016B012903D0FFF747F900203B
:1030100008BD002101630168CA6822F01002CA607D
:1030200001680A68D20602D50A6849680091818D54
:10303000FEF7A3FFEBE7000070B5044600680169E6
:10304000E26821F44051114301612169A0680843FD
:10305000616908432168CA6841F20C639A430243DC
:10306000CA6020684169A26921F44071114341613D
:103070001E492068884202D1FEF784FB01E0FEF77A
:1030800071FB00EBC00101EB00126068642180005D
:10309000B2FBF0F3B3FBF1F36FF018067343B2FB2E
:1030A000F0F5B2FBF0F605EB8305322303EB0515D3
:1030B000B5FBF1F5B6FBF1F605F0F00505EB0615ED
:1030C000B2FBF0F6B2FBF0F0B0FBF1F06FF01802DB
:1030D000504306EB800003EB0010B0FBF1F02168D9
:1030E00000F00F002844886070BD000000380140E7
:1030F00081628285C28500210164222280F83E20FF
:1031000080F83C100168CA6842F48072CA600168A5
:103110004A6942F001024A610068C16841F0200139
:10312000C160002070472DE9F041984617460E46D1
:103130000446069D1DE0681C1BD02DB1FDF79EFEC8
:10314000A0EB0800A84214D92068C16821F4D0710E
:10315000C1602068416921F001014161202084F8AB
:103160003D0084F83E00002084F83C000320BDE8C8
:10317000F0812068006836EA000004D00020B842E0
:10318000D9D00020F3E70120F9E700000148FEF75D
:10319000F7BE000004010020FEE700001CB500217E
:1031A00001918DF805004FF6FF700090022301AAEF
:1031B00078210248FDF72CFF1CBD000020000020F4
:1031C0001CB507A10223096801918DF805004FF68F
:1031D000FF70009001AA78210248FDF719FF1CBD7D
:1031E00040000000200000200FB4054B10B503A9DB
:1031F000044A029800F0DEF810BC5DF814FB0000F1
:10320000E53A0008180000200907090E002804DB31
:1032100000F1E02080F80014704700F00F0000F18A
:10322000E02080F8141D7047004870471C00002003
:1032300002E008C8121F08C1002AFAD1704770477F
:10324000002001E001C1121F002AFBD170470000DD
:103250002DE9FF5FDDE90220010DDDF838B0024302
:1032600018D044F61050A1F2FF3141430D140F98CD
:10327000012820D0A5EB0B00401C5FEA000A4FF0AC
:103280000004474EDFF81C91A046504616D5CAF1FF
:10329000000728E00F98012443A2012808D000214C
:1032A00000980F9BC0E90021C0E90243BDE8FF9FE1
:1032B0006FEA0B01F4E7CBF10000DEE7074612E00E
:1032C000F80707D02246334640464946FCF789FFB7
:1032D000804689462246334610461946FCF781FF50
:1032E00004460E467F10002FEAD1DDE90201BAF153
:1032F000000F42464B4602DAFCF773FF01E0FDF790
:1033000076F904460E460022284BFDF7F7F903D85C
:103310004FF0FF30014607E00022254B20463146A2
:10332000FDF7BEF8FDF7D2F9102409E0002C0ADB06
:103330000A220023FCF7EEFF019B30321A55641E6F
:1033400050EA0102F2D1641C019AC4F11103144441
:103350000F9A012A03D0012208430DD10AE0084345
:1033600004D000204FF0110B0F9080E7A3EB0B056A
:103370006D1E0DE05B4504DD4FF0000205F1010517
:1033800004E003DA4FF00002A5F10105002AECD0B9
:1033900000980F99C0E90231C0E9004586E70000B6
:1033A000000024400000F03F300000000000F04327
:1033B0000000E03F2DE9FF4F95B09B468946064649
:1033C00000250FE2252877D100242746F84A01215D
:1033D000059400E0044316F8013F203B01FA03F096
:1033E0001042F7D130782A2811D06FF02F033078AF
:1033F000A0F13002092A16D8059A44F0020402EB23
:10340000820203EB42021044761C0590EFE759F864
:10341000042B0592002A03DA504244F4005405902C
:1034200044F00204761C30782E2816D116F8010FCD
:1034300044F004042A280DD06FF02F023078A0F158
:103440003003092B09D807EB870302EB4303C718A6
:10345000761CF3E759F8047B761C30786C280FD083
:1034600006DC4C2817D068280DD06A2814D104E057
:10347000742810D07A280FD10DE044F400140AE02B
:1034800044F4801401E044F440147278824202D182
:1034900004F58014761C761C307866280BD013DC7B
:1034A000582877D009DC002875D04528F6D0462862
:1034B000F4D047281AD19DE118E0632835D064285C
:1034C00079D0652812D195E1702873D008DC67287F
:1034D000F1D069286FD06E280DD06F2806D1B5E0E5
:1034E00073282CD0752875D0782874D05A4617992F
:1034F00090476D1C75E1C4F30250022809D00328DF
:103500000DD0D9F8001004280DD00D6009F1040980
:1035100067E1D9F80010EA17C1E90052F6E7D9F8D7
:1035200000100D80F2E70D70F0E719F8041B8DF81C
:10353000001000208DF80100EA46012003E059F850
:1035400004AB4FF0FF3061074FF0000102D40DE0F3
:1035500008F101018846B9420FDA8045F8DB1AF814
:1035600008100029F4D108E008F1010188468142E1
:10357000FADB1AF808100029F6D105985B46A0EB93
:10358000080721463846179A00F094FA284400EBC1
:10359000080507E04DE029E10DE01AF8010B5A4655
:1035A00017999047B8F10108F7D25B462146384693
:1035B000179A13E142E00A220092C4F302524FF03C
:1035C000000A022A08D059F804CB032A4FEAEC710A
:1035D0000AD00DE029E02AE009F1070121F00702F5
:1035E000F2E802C1914609E00FFA8CFC4FEAEC7157
:1035F000042A03D14FFA8CFC4FEAEC71002907DA58
:103600000A460021DCF1000C61EB02012D2202E0F0
:10361000220504D52B228DF80420012203E0E207C5
:1036200001D02022F7E7904659E00A2102E010225B
:103630000DE010214FF0000A00910BE010224FF036
:10364000000A44F004040827009203E008224FF027
:10365000000A0092C4F30252022A05D059F804CBA2
:103660000021032A08D009E009F1070121F007022F
:10367000F2E802C1914605E01FFA8CFC042A01D150
:103680000CF0FF0C4FF00008220728D5702806D058
:10369000009B83F0100353EA0A0305D00EE040229A
:1036A0008DF80420012208E05CEA010206D03022F5
:1036B0008DF804208DF8050002229046009B83F0CF
:1036C000080353EA0A030AD15CEA010201D1620746
:1036D00005D530228DF804204FF001087F1E5828B0
:1036E00004D034A003900EA802900DE036A0F9E7B4
:1036F00053466046009AFCF70DFE84460398825CB0
:103700000298401E029002705CEA0100F0D102981B
:1037100006A9081A00F1200A600702D524F48034B3
:1037200000E00127574502DDA7EB0A0000E000207A
:1037300000EB0A01009005984144401A0590E0030F
:1037400006D45B462146179A059800F0B3F9054464
:10375000002706E001A85A46C05D179990476D1CE6
:103760007F1C4745F6DBE0030CD55B462146179AE4
:10377000059800F09FF9054404E030205A46179957
:1037800090476D1C0099481E00900029F5DC08E068
:10379000029802995A460078491C0291179990475D
:1037A0006D1CBAF10001AAF1010AF1DC65E100002B
:1037B0000928010030313233343536373839616207
:1037C00063646566000000003031323334353637CB
:1037D00038394142434445460000000000F058F9A2
:1037E0000544761C307800287FF4ECAD19B02846EB
:1037F000BDE8F08F620700D4062709F1070222F026
:10380000070CFCE80223E14603F000485FEA080CDD
:1038100002D00FF2702C0DE05FEA045C02D50FF2CB
:10382000682C07E05FEAC47C02D00FF2602C01E054
:10383000AFF2700C4FF0FF3823F00043CDF850C0CA
:1038400065280CD006DC452809D046281DD047281D
:103850003DD13DE0662818D067287ED138E00021B0
:10386000112F01DB112000E0781CCDE9000106A931
:103870000EA8FFF7EDFCDDE90F010E9A0391002180
:10388000009207F1010A04914DE04FF000400097CB
:10389000CDE9011006A90EA8FFF7DAFCDDE90F0259
:1038A00003920E9B11990022DDF80CA00093049264
:1038B00011B9791C00EB010AB7EB0A0004D4C0F17E
:1038C000FF3007F1010A0490AAEB0700019044E0E1
:1038D000012F00DA01270021112F01DD112000E066
:1038E0003846CDE9000106A90EA8FFF7B1FCDDE9D5
:1038F0000F010E9A0391002104910092BA4621070C
:103900000CD40399514500DA8A46BAF1010F05DD5E
:10391000009AAAF10101515C302908D0B84202DABC
:1039200010F1040F06DA0121CDE9011015E0AAF12A
:103930000101E9E7002805DC049901440491AAEBA0
:10394000000102E0411C514500DD8A460499401AFD
:10395000401C01904FF000400290200704D40198D1
:10396000504501DBCDF8048000208DF84F0002980F
:103970000DF14F07B0F1004F25D02B200E9002988B
:103980004FF0020800280CDA404202902D200E90E1
:1039900007E00A210298FCF7A7FC3031029007F8F3
:1039A000011DB8F10001A8F10108F2DC029800281D
:1039B000EFD1791E0E980870307800F0200040F0AA
:1039C000450007F8020D12A8C01B00F10708149863
:1039D000007800B1012000EB0A01019801EBE071D1
:1039E00005984144401A401E0590E00306D45B460A
:1039F0002146179A059800F05DF805441498007860
:103A000018B15A46179990476D1CE00324D55B46C0
:103A10002146179A059800F04DF805441CE00498DB
:103A2000002807DBDDE90301884203DD0098405CE4
:103A3000179901E0179930205A469047049805F1EC
:103A40000105401C04900198401E019004D12E20D5
:103A50005A46179990476D1CBAF10001AAF1010A64
:103A6000DDDC05E017F8010B5A46179990476D1CED
:103A7000B8F10001A8F10108F4DC5B462146179A71
:103A80000598ABE62D0000002B0000002000000090
:103A90002DE9F041044600251E461746880404D44B
:103AA00005E039462020B0476D1C641EF9D5284634
:103AB000BDE8F0812DE9F041044600251E46904600
:103AC000C80301D5302700E02027880404D505E08D
:103AD00041463846B0476D1C641EF9D52846BDE8FE
:103AE000F081000038B504468DF8000009480078E0
:103AF00010B1012809D00BE007484FF6FF730122EF
:103B0000806C6946FEF7D4FB02E0E0B2FFF7F4F800
:103B1000204638BD100000204801002008B5FDF700
:103B200003FDFFF715F9FEF709FFFEF7D9FFFEF7D2
:103B300071FFFEF7A3FFFEF74DFF1248FFF7C0F934
:103B40001148FCF78FFF1148009011484FF4806333
:103B50000246C114FCF7C8FEFEF776FEFFF71CF81C
:103B60000CA0FCF78BFF0E4CFEF732FEFEF73CFE7E
:103B7000B4F90A30B4F90820B4F9061009A0FCF72A
:103B80007DFFF1E7BC00002004010020740000204C
:103B9000000C014066696E697368202E2E2E0000AD
:103BA00000020020256420092025642009202564C6
:103BB000200920656E642000000000000000000065
:103BC00001020304060708090000000001020304C3
:103BD0000000000000000000002F000000000700AF
:103BE000070000147F147F1400242A7F2A12006229
:103BF00064081323003649552250000005030000D5
:103C000000001C224100000041221C000014083E5C
:103C100008140008083E0808000000A06000000822
:103C20000808080800006060000000201008040276
:103C3000003E5149453E0000427F40000042615134
:103C40004946002141454B31001814127F100027CE
:103C500045454539003C4A49493000017109050391
:103C600000364949493600064949291E00003636C2
:103C70000000000056360000000814224100001425
:103C80001414141400004122140800020151090602
:103C900000324959513E007C1211127C007F494983
:103CA0004936003E41414122007F4141221C007FB4
:103CB00049494941007F09090901003E4149497AC2
:103CC000007F0808087F0000417F4100002040413C
:103CD0003F01007F08142241007F40404040007FA8
:103CE000020C027F007F0408107F003E4141413EEC
:103CF000007F09090906003E4151215E007F091934
:103D000029460046494949310001017F0101003F30
:103D10004040403F001F2040201F003F4038403FB0
:103D20000063140814630007087008070061514914
:103D3000454300007F41410000552A552A550000A7
:103D400041417F0000040201020400404040404025
:103D5000000001020400002054545478007F4844BD
:103D6000443800384444442000384444487F0038F4
:103D70005454541800087E0901020018A4A4A47C1D
:103D8000007F080404780000447D400000408084E7
:103D90007D00007F102844000000417F4000007C2F
:103DA00004180478007C080404780038444444383B
:103DB00000FC242424180018242418FC007C080487
:103DC000040800485454542000043F444020003C60
:103DD0004040207C001C2040201C003C4030403CE7
:103DE000004428102844001CA0A0A07C0044645477
:103DF0004C441414141414140040404040404040FB
:103E000040404141414141404040404040404040AD
:103E10004040404040404040400502020202020251
:103E200002020202020202020220202020202020A0
:103E300020202002020202020202909090909090B4
:103E40001010101010101010101010101010101072
:103E500010101010020202020202888888888888E6
:103E600008080808080808080808080808080808D2
:103E7000080808080202020240000000F93D00089C
:103E8000A03E0008000000202000000030320008A2
:103E9000C03E000820000020480600004032000814
:103EA0000100000010000000000000000024F400E9
:103EB0000000000000000000000000000000000002
:04000005080000ED02
:00000001FF
